:100000000C945E000C9486000C9486000C94D40032
:100010000C94D4000C94D4000C9486000C948600AC
:100020000C9486000C9486000C9486000C94860038
:100030000C9486000C9486000C9486000C94860028
:100040000C94F4050C9486000C9439040C946B0405
:100050000C9486000C9486000C9486000C94860008
:100060000C9486000C948600000000080002010039
:100070000003040700000000000000000102040863
:100080001020408001020408102001020408102002
:10009000040404040404040402020202020203032E
:1000A0000303030300000000250028002B000000CC
:1000B0000000240027002A009E009B0411241FBE7C
:1000C000CFEFD8E0DEBFCDBF11E0A0E0B1E0E4E2C9
:1000D000FFE002C005900D92A033B107D9F722E0EE
:1000E000A0E3B1E001C01D92A433B207E1F710E034
:1000F000CCEBD0E004C02297FE010E948C07C83BE5
:10010000D107C9F70E94E5050C9490070C940000F4
:1001100026E040E855E260E070E08EE891E00E9461
:10012000D70320E042E060E182E391E00E940D020B
:1001300060E071E082E391E00C941C05CF92EF92B5
:100140000F9387E0C82E96E0E92E05E024E049E011
:1001500068E082E391E00E94C8020F91EF90CF9097
:10016000089582E391E00E94FE0164EF71E080E077
:1001700090E00E94610682E391E00E9405028EE811
:1001800091E00E940D0390933101809330014AE089
:1001900050E0BC018EE891E00E94CC0564EF71E074
:1001A00080E090E00C9461061F920F920FB60F92C0
:1001B00011242F933F934F935F936F937F938F936C
:1001C0009F93AF93BF93EF93FF93E0918C01F091D6
:1001D0008D01309709F451C0868DA685B785958528
:1001E00081FF04C08C91892329F447C08C91892315
:1001F00009F043C0A389B4899C918589809589239E
:100200008C93868997890197F1F7208D318DA6858A
:10021000B785758558E040E0C9010197F1F7842F53
:1002200090E095958795482F6C91672309F0406879
:10023000515091F7868D81FD409580914B0190E062
:1002400001968F73992720914A01281749F0A091B0
:100250004B01B0E0A45BBE4F4C9380934B0103C0B5
:10026000868D8160868F828D938D0197F1F7A389AA
:10027000B4898C919589892B8C93FF91EF91BF91D3
:10028000AF919F918F917F916F915F914F913F912E
:100290002F910F900FBE0F901F901895CF93DF9363
:1002A000EC0160E08E810E94310781E090E00E94C5
:1002B000890661E08E810E94310781E090E00E9412
:1002C000890660E08E810E94310784E690E0DF912C
:1002D000CF910C948906CF92DF92EF92FF920F9309
:1002E0001F93CF93DF937C01C0E0D0E0C62ED12CCA
:1002F00087010C0F1D1F61E0F80187810E94F8063D
:10030000B6010C2E02C0759567950A94E2F76170EC
:10031000F80187810E9431072196C430D10541F749
:10032000C701DF91CF911F910F91FF90EF90DF9068
:10033000CF900C944E01CF92DF92EF92FF920F93E9
:100340001F93CF93DF937C01C0E0D0E0C62ED12C69
:1003500087010C0F1D1F61E0F80187810E94F806DC
:10036000B6010C2E02C0759567950A94E2F761708C
:10037000F80187810E9431072196C830D10541F7E5
:10038000C701DF91CF911F910F91FF90EF90DF9008
:10039000CF900C944E011F93CF93DF93EC01162F57
:1003A000642F8C810E9431078D818F3F19F060E0AE
:1003B0000E9431078F85612F84FF06C0CE01DF9137
:1003C000CF911F910C949B0170E084E07595679527
:1003D0008A95E1F7CE010E946B01612FCE01DF917A
:1003E000CF911F910C946B0140E00C94CB0161E024
:1003F0000E94F40180ED97E00C948906FC0160896D
:100400006B7F608B68600C94F401FC016089262F7F
:100410002460208B6C600C94F401CF93DF93EC018B
:10042000423018F08F8588608F874B8B1C8A80E460
:100430008D8B6E8B70E0605C7F4F6F8B222329F079
:10044000413019F48F8584608F8780E593EC0E949A
:10045000890660E08C810E94310760E08E810E94F5
:1004600031078D818F3F19F060E00E9431076F8561
:1004700064FD1DC063E0CE010E946B0184E991E13F
:100480000E94890663E0CE010E946B0184E991E13C
:100490000E94890663E0CE010E946B0186E990E02C
:1004A0000E94890662E0CE010E946B0116C0606264
:1004B000CE010E94F40184E991E10E9489066F85D2
:1004C0006062CE010E94F40186E990E00E948906F4
:1004D0006F856062CE010E94F4016F856062CE017B
:1004E0000E94F40184E0888BCE010E940502CE01B7
:1004F0000E94F70182E0898B66E0CE01DF91CF9107
:100500000C94F4016F927F928F92AF92CF92EF9200
:100510000F931F93CF93DF93CDB7DEB73C01162F18
:10052000842F5D854E853F859889F30184832583DB
:100530000683E782C086A1868286538744873587F3
:10054000968761E00E94F806F30185818F3F19F0DC
:1005500061E00E94F80661E0F30186810E94F806DE
:10056000112319F0F301178603C080E1F301878797
:1005700020E041E060E1C301DF91CF911F910F9135
:10058000EF90CF90AF908F907F906F900C940D0272
:100590008F92AF92CF92EF920F93DC0113961C9241
:1005A0001E921297EBE0F1E0ED93FC931F921F92E5
:1005B0001F921F928C2CAE2CC02EE22E042F2FEFF8
:1005C000462F61E00E9482020F900F900F900F90D3
:1005D0000F91EF90CF90AF908F90089541E00E94DF
:1005E000CB0181E090E00895FC01818D228D90E0A7
:1005F000805C9F4F821B91098F7399270895FC019E
:10060000918D828D981731F0828DE80FF11D858DC7
:1006100090E008958FEF9FEF0895FC01918D828DFA
:10062000981761F0828DDF01A80FB11D5D968C9146
:10063000928D9F5F9F73928F90E008958FEF9FEF51
:10064000089581E994E0892B49F080E090E0892BBE
:1006500029F00E94910481110C9400000895FC017E
:10066000848DDF01A80FB11DA35ABF4F2C91848D3B
:1006700090E001968F739927848FA689B7892C9370
:10068000A089B1898C9180648C93938D848D98130B
:1006900006C00288F389E02D80818F7D80830895D4
:1006A000CF93DF93EC01888D8823C9F0EA89FB8919
:1006B000808185FD05C0A889B9898C9186FD0FC010
:1006C0000FB607FCF5CF808185FFF2CFA889B989E5
:1006D0008C9185FFEDCFCE010E942F03E7CFDF91F4
:1006E000CF910895CF92DF92FF920F931F93CF93F4
:1006F000DF931F92CDB7DEB76C0181E0D60158962B
:100700008C9358975B969C915B975C968C915C97C9
:10071000981307C05096ED91FC915197808185FD0B
:100720002EC0F601038D10E00F5F1F4F0F731127CE
:10073000F02EF601848DF81211C00FB607FCF9CF28
:10074000D6015096ED91FC915197808185FFF1CFB4
:10075000C60169830E942F036981EBCF838DE80F67
:10076000F11DE35AFF4F6083D6015B960C935B97B4
:100770005296ED91FC915397808180620CC0D60116
:100780005696ED91FC91579760835096ED91FC91B0
:10079000519780818064808381E090E00F90DF91A9
:1007A000CF911F910F91FF90DF90CF900895BF924E
:1007B000CF92DF92EF92FF92CF93DF93EC016A0129
:1007C0007B01B22EE889F98982E08083411581EEB0
:1007D000580761057105A1F060E079E08DE390E0D4
:1007E000A70196010E94680721503109410951096A
:1007F0005695479537952795211580E1380798F04C
:10080000E889F989108260E874E88EE190E0A70138
:1008100096010E94680721503109410951095695F6
:10082000479537952795EC85FD853083EE85FF85C7
:100830002083188EEC89FD89B082EA89FB8980814A
:1008400080618083EA89FB89808188608083EA896E
:10085000FB89808180688083EA89FB8980818F7D24
:100860008083DF91CF91FF90EF90DF90CF90BF908A
:1008700008951F920F920FB60F9211242F938F930A
:100880009F93EF93FF93E0919E01F0919F018081F0
:10089000E091A401F091A50182FD12C090818091A8
:1008A000A7018F5F8F732091A801821751F0E0910B
:1008B000A701F0E0E257FE4F958F8093A70101C09A
:1008C0008081FF91EF919F918F912F910F900FBE9B
:1008D0000F901F9018951F920F920FB60F92112430
:1008E0002F933F934F935F936F937F938F939F9338
:1008F000AF93BF93EF93FF938EE891E00E942F0395
:10090000FF91EF91BF91AF919F918F917F916F91E7
:100910005F914F913F912F910F900FBE0F901F90BD
:1009200018958EE891E00E94F40221E0892B09F4E9
:1009300020E0822F0895109291011092900188EE8C
:1009400093E0A0E0B0E08093920190939301A09394
:100950009401B093950183E191E090938F0180938E
:100960008E0185EC90E090939B0180939A0184EC3A
:1009700090E090939D0180939C0180EC90E0909397
:100980009F0180939E0181EC90E09093A101809360
:10099000A00182EC90E09093A3018093A20186ECE9
:1009A00090E09093A5018093A4011092A70110926A
:1009B000A8011092A9011092AA010895CF92DF9286
:1009C000EF92FF920F931F93CF93DF936C017A0105
:1009D000EB01E60EF71E00E010E0CE15DF0561F03A
:1009E0006991D601ED91FC910190F081E02DC60155
:1009F0000995080F191FF1CFC801DF91CF911F9101
:100A00000F91FF90EF90DF90CF90089561157105E1
:100A100081F0DB010D900020E9F7AD014150510953
:100A2000461B570BDC01ED91FC910280F381E02D18
:100A3000099480E090E008950C940605DC01ED91A6
:100A4000FC910190F081E02D09946FE171E00C942C
:100A500006058F929F92AF92BF92CF92DF92EF9254
:100A6000FF920F931F93CF93DF93CDB7DEB7A1977C
:100A70000FB6F894DEBF0FBECDBF7C01C42EE52FAC
:100A8000CB01D22E19A221E02D1510F02AE0D22E92
:100A90008E010F5D1F4F8D2C912CA12CB12C6C2D34
:100AA0007E2FA50194010E9468078C2DD29E80198B
:100AB0001124015011098A3014F4805D01C0895C51
:100AC000F8018083211531054105510521F0C22E21
:100AD000E32FCA01E4CFB801C7010E940605A19621
:100AE0000FB6F894DEBF0FBECDBFDF91CF911F913F
:100AF0000F91FF90EF90DF90CF90BF90AF909F90BD
:100B00008F900895CF92DF92EF92FF920F931F93F1
:100B1000CF93DF93EC016A017B012115310579F454
:100B2000E881F9810190F081E02D642FDF91CF9170
:100B30001F910F91FF90EF90DF90CF9009942A3092
:100B40003105E9F477FF1AC06DE20E941E058C01A1
:100B500044275527BA014C195D096E097F092AE01F
:100B6000CE010E942905800F911FDF91CF911F9127
:100B70000F91FF90EF90DF90CF9008952AE0B7019A
:100B8000A601CE01DF91CF911F910F91FF90EF90C1
:100B9000DF90CF900C9429050F931F93CF93DF9391
:100BA000EC019A01AB01662757FD6095762F0E94F4
:100BB00082058C01CE010E942505800F911FDF91D7
:100BC000CF911F910F91089508950E9494060E945D
:100BD000E4050E948800C1E2D3E00E94B1002097A2
:100BE000E1F30E942103F9CF1F920F920FB60F92EB
:100BF00011242F933F938F939F93AF93BF93809133
:100C00002C0290912D02A0912E02B0912F023091D2
:100C10002B0223E0230F2D3720F40196A11DB11DD7
:100C200005C026E8230F0296A11DB11D20932B02BB
:100C300080932C0290932D02A0932E02B0932F024A
:100C40008091300290913102A0913202B091330232
:100C50000196A11DB11D8093300290933102A093A3
:100C60003202B0933302BF91AF919F918F913F9128
:100C70002F910F900FBE0F901F9018953FB7F894CB
:100C80008091300290913102A0913202B0913302F2
:100C900026B5A89B05C02F3F19F00196A11DB11DD7
:100CA0003FBF6627782F892F9A2F620F711D811DF4
:100CB000911D42E0660F771F881F991F4A95D1F753
:100CC0000895CF92DF92EF92FF92CF93DF936B0163
:100CD0007C010E943E06EB01C114D104E104F10441
:100CE00089F00E9467070E943E066C1B7D0B683EE0
:100CF000734090F381E0C81AD108E108F108C851A7
:100D0000DC4FEACFDF91CF91FF90EF90DF90CF9053
:100D100008958230910538F0880F991F880F991F28
:100D200005970197F1F70895789484B5826084BDA2
:100D300084B5816084BD85B5826085BD85B58160DF
:100D400085BDEEE6F0E0808181608083E1E8F0E03F
:100D50001082808182608083808181608083E0E86E
:100D6000F0E0808181608083E1EBF0E0808184604D
:100D70008083E0EBF0E0808181608083EAE7F0E04F
:100D800080818460808380818260808380818160B3
:100D900080838081806880831092C10008958330B1
:100DA00081F028F4813099F08230A1F008958730E5
:100DB000A9F08830B9F08430D1F4809180008F7D23
:100DC00003C0809180008F7780938000089584B560
:100DD0008F7702C084B58F7D84BD08958091B00067
:100DE0008F7703C08091B0008F7D8093B00008950D
:100DF000CF93DF9390E0FC01E458FF4F2491FC0176
:100E0000E057FF4F8491882349F190E0880F991FA4
:100E1000FC01E255FF4FA591B4918C559F4FFC0109
:100E2000C591D4919FB7611108C0F8948C91209519
:100E300082238C93888182230AC0623051F4F89413
:100E40008C91322F309583238C938881822B8883D9
:100E500004C0F8948C91822B8C939FBFDF91CF912B
:100E600008950F931F93CF93DF931F92CDB7DEB7F3
:100E7000282F30E0F901E859FF4F8491F901E45837
:100E8000FF4F1491F901E057FF4F04910023C9F07F
:100E9000882321F069830E94CF066981E02FF0E06A
:100EA000EE0FFF1FEC55FF4FA591B4919FB7F8943B
:100EB0008C91611103C01095812301C0812B8C930B
:100EC0009FBF0F90DF91CF911F910F9108950895CB
:100ED000A1E21A2EAA1BBB1BFD010DC0AA1FBB1F3E
:100EE000EE1FFF1FA217B307E407F50720F0A21BB0
:100EF000B30BE40BF50B661F771F881F991F1A941D
:100F000069F760957095809590959B01AC01BD0146
:100F1000CF010895EE0FFF1F0590F491E02D099485
:040F2000F894FFCF73
:100F240068656C6C6F210000000000EE02DE0400B6
:100F34000000007203DE04F4020D03FF0250030DEF
:100F44000A006E616E00696E66006F7666002E00A0
:00000001FF
