:100000000C9435000C945D000C945D000C945D0024
:100010000C945D000C945D000C945D000C945D00EC
:100020000C945D000C945D000C945D000C945D00DC
:100030000C945D000C945D000C945D000C945D00CC
:100040000C9451030C945D000C9448020C947A02B9
:100050000C945D000C945D000C945D000C945D00AC
:100060000C945D000C945D00AA0211241FBECFEF1A
:10007000D8E0DEBFCDBF11E0A0E0B1E0E8E9F8E0F4
:1000800002C005900D92AA3CB107D9F722E0AAEC74
:10009000B1E001C01D92A037B207E1F710E0CAE657
:1000A000D0E004C02297FE010E944604C836D10762
:1000B000C9F70E9442030C944A040C94000026E005
:1000C0000C94E601089568EE73E080E090E00E94F1
:1000D000BE0340E051EE60E070E08AEC91E00E94E7
:1000E0005F0060E071E08AEC91E00E942F0368EE0F
:1000F00073E080E090E00E94BE0340E05CE261E0DB
:1001000070E08AEC91E00E945F0064E171E08AECAB
:1001100091E00E942F0368EE73E080E090E00E947F
:10012000BE0340E052EC61E070E08AEC91E00E9496
:100130005F0068E271E08AEC91E00E942F0368EEB4
:1001400073E080E090E00E94BE0340E054E863E08A
:1001500070E08AEC91E00E945F006DE371E08AEC50
:1001600091E00E942F0368EE73E080E090E00E942F
:10017000BE0340E950ED63E070E08AEC91E00E943C
:100180005F0062E571E08AEC91E00E942F0368EE67
:1001900073E080E090E00E94BE0340E251EA67E035
:1001A00070E08AEC91E00E945F0067E671E08AEC03
:1001B00091E00E942F0368EE73E080E090E00E94DF
:1001C000BE0340E452E46FE070E08AEC91E00E94EC
:1001D0005F006CE771E08AEC91E00E942F0368EE0B
:1001E00073E080E090E00E94BE0340E854E86EE1D6
:1001F00070E08AEC91E00E945F0062E971E08AECB5
:1002000091E00C942F03FC01818D228D90E0805CA5
:100210009F4F821B91098F7399270895FC01918D3F
:10022000828D981731F0828DE80FF11D858D90E059
:1002300008958FEF9FEF0895FC01918D828D98179F
:1002400061F0828DDF01A80FB11D5D968C91928DBA
:100250009F5F9F73928F90E008958FEF9FEF0895B7
:1002600080EA92E0892B49F080E090E0892B29F028
:100270000E94A00281110C9400000895FC01848D5D
:10028000DF01A80FB11DA35ABF4F2C91848D90E0C0
:1002900001968F739927848FA689B7892C93A0899B
:1002A000B1898C9180648C93938D848D981306C052
:1002B0000288F389E02D80818F7D80830895CF931C
:1002C000DF93EC01888D8823C9F0EA89FB8980815E
:1002D00085FD05C0A889B9898C9186FD0FC00FB630
:1002E00007FCF5CF808185FFF2CFA889B9898C9171
:1002F00085FFEDCFCE010E943E01E7CFDF91CF9188
:100300000895CF92DF92FF920F931F93CF93DF93C5
:100310001F92CDB7DEB76C0181E0D60158968C9361
:1003200058975B969C915B975C968C915C97981321
:1003300007C05096ED91FC915197808185FD2EC0AC
:10034000F601038D10E00F5F1F4F0F731127F02E82
:10035000F601848DF81211C00FB607FCF9CFD60153
:100360005096ED91FC915197808185FFF1CFC601A8
:1003700069830E943E016981EBCF838DE80FF11DF7
:10038000E35AFF4F6083D6015B960C935B975296BE
:10039000ED91FC915397808180620CC0D6015696F6
:1003A000ED91FC91579760835096ED91FC91519798
:1003B00080818064808381E090E00F90DF91CF9115
:1003C0001F910F91FF90DF90CF900895BF92CF9231
:1003D000DF92EF92FF92CF93DF93EC016A017B01F2
:1003E000B22EE889F98982E08083411581EE5807B1
:1003F00061057105A1F060E079E08DE390E0A7016F
:1004000096010E9422042150310941095109569553
:10041000479537952795211580E1380798F0E889A9
:10042000F989108260E874E88EE190E0A7019601F6
:100430000E942204215031094109510956954795DE
:1004400037952795EC85FD853083EE85FF852083E4
:10045000188EEC89FD89B082EA89FB8980818061F0
:100460008083EA89FB89808188608083EA89FB89AF
:10047000808180688083EA89FB8980818F7D808389
:10048000DF91CF91FF90EF90DF90CF90BF900895D4
:100490001F920F920FB60F9211242F938F939F9359
:1004A000EF93FF93E091DA01F091DB018081E0911D
:1004B000E001F091E10182FD12C090818091E301A1
:1004C0008F5F8F732091E401821751F0E091E30177
:1004D000F0E0E653FE4F958F8093E30101C08081E9
:1004E000FF91EF919F918F912F910F900FBE0F90E1
:1004F0001F9018951F920F920FB60F9211242F93F1
:100500003F934F935F936F937F938F939F93AF939B
:10051000BF93EF93FF938AEC91E00E943E01FF911D
:10052000EF91BF91AF919F918F917F916F915F916B
:100530004F913F912F910F900FBE0F901F901895E4
:100540008AEC91E00E94030121E0892B09F420E06C
:10055000822F08951092CD011092CC0188EE93E085
:10056000A0E0B0E08093CE019093CF01A093D001A2
:10057000B093D1018CEA91E09093CB018093CA01B2
:1005800085EC90E09093D7018093D60184EC90E0C5
:100590009093D9018093D80180EC90E09093DB0197
:1005A0008093DA0181EC90E09093DD018093DC018F
:1005B00082EC90E09093DF018093DE0186EC90E086
:1005C0009093E1018093E0011092E3011092E40125
:1005D0001092E5011092E6010895CF92DF92EF921A
:1005E000FF920F931F93CF93DF936C017A01EB017E
:1005F000E60EF71E00E010E0CE15DF0561F0699110
:10060000D601ED91FC910190F081E02DC601099594
:10061000080F191FF1CFC801DF91CF911F910F91E2
:10062000FF90EF90DF90CF9008956115710581F0F4
:10063000DB010D900020E9F7AD0141505109461B47
:10064000570BDC01ED91FC910280F381E02D0994C0
:1006500080E090E0089568EB71E00C9415030F932F
:100660001F93CF93DF93EC010E9415038C01CE0101
:100670000E942B03800F911FDF91CF911F910F914B
:10068000089508950E94E6030E9441030E946200BB
:10069000C0E3D1E00E9463002097E1F30E943001A3
:1006A000F9CF1F920F920FB60F9211242F933F9301
:1006B0008F939F93AF93BF9380916802909169024B
:1006C000A0916A02B0916B023091670223E0230F80
:1006D0002D3720F40196A11DB11D05C026E8230F7A
:1006E0000296A11DB11D209367028093680290932A
:1006F0006902A0936A02B0936B0280916C029091A0
:100700006D02A0916E02B0916F020196A11DB11D04
:1007100080936C0290936D02A0936E02B0936F026F
:10072000BF91AF919F918F913F912F910F900FBEED
:100730000F901F9018953FB7F89480916C0290919C
:100740006D02A0916E02B0916F0226B5A89B05C004
:100750002F3F19F00196A11DB11D3FBF6627782FCD
:10076000892F9A2F620F711D811D911D42E0660F26
:10077000771F881F991F4A95D1F70895CF92DF926E
:10078000EF92FF92CF93DF936B017C010E949B035A
:10079000EB01C114D104E104F10489F00E942104A9
:1007A0000E949B036C1B7D0B683E734090F381E0BD
:1007B000C81AD108E108F108C851DC4FEACFDF912F
:1007C000CF91FF90EF90DF90CF900895789484B50B
:1007D000826084BD84B5816084BD85B5826085BD3D
:1007E00085B5816085BDEEE6F0E080818160808323
:1007F000E1E8F0E010828081826080838081816006
:100800008083E0E8F0E0808181608083E1EBF0E0CC
:10081000808184608083E0EBF0E080818160808370
:10082000EAE7F0E080818460808380818260808359
:100830008081816080838081806880831092C10084
:1008400008950895A1E21A2EAA1BBB1BFD010DC03D
:10085000AA1FBB1FEE1FFF1FA217B307E407F50770
:1008600020F0A21BB30BE40BF50B661F771F881F4C
:10087000991F1A9469F760957095809590959B01E2
:10088000AC01BD01CF010895EE0FFF1F0590F4915B
:08089000E02D0994F894FFCF5C
:100898000D0D426175642D72617465203D203537F8
:1008A800363030000D0D426175642D72617465201B
:1008B8003D203736383030000D0D426175642D7299
:1008C800617465203D20313135323030000D0D42E4
:1008D8006175642D72617465203D20323330343087
:1008E80030000D0D426175642D72617465203D20E4
:1008F800323530303030000D0D426175642D726133
:100908007465203D20353030303030000D0D4261A7
:1009180075642D72617465203D203130303030307F
:1009280030000D0D426175642D72617465203D20A3
:100938003230303030303000000000008101ED02EC
:1009480003011C010E015F010D0A006E616E006952
:0A0958006E66006F7666002E000048
:00000001FF
