:100000000C9464000C948C000C948C000C94D4011F
:100010000C94D4010C94D4010C948C000C948C009E
:100020000C948C000C948C000C948C000C948C0020
:100030000C948C000C948C000C948C000C948C0010
:100040000C94BA050C948C000C94AA040C94DC0457
:100050000C948C000C948C000C948C000C948C00F0
:100060000C948C000C948C0000000008000201002D
:100070000003040700000000000000000102040863
:100080001020408001020408102001020408102002
:10009000040404040404040402020202020203032E
:1000A00003030303000000002300260029000000D2
:1000B0000000250028002B0000000000240027007D
:1000C0002A00AB000C05B20011241FBECFEFD4E014
:1000D000DEBFCDBF11E0A0E0B1E0E6EAFEE002C085
:1000E00005900D92A433B107D9F722E0A4E3B1E063
:1000F00001C01D92AE33B207E1F710E0C6ECD0E0CC
:1001000004C02297FE010E944207C23CD107C9F7F2
:100110000E94AB050C9446070C94000026E040E8D2
:1001200055E260E070E088E991E00E94480460E0F8
:1001300071E088E991E00E94980540E056E960E0AE
:1001400070E085E391E00E94D70260E071E085E312
:1001500091E00C94980520E040E061E085E391E0B7
:100160000C94A70285E391E00C944E0285E391E0A4
:100170000E946E01892B61F085E391E00E94E1000D
:1001800080933401682F88E991E00E948D05EECFBD
:1001900088E991E00E946503892B91F088E991E05C
:1001A0000E947E0380933401682F88E991E00E94C9
:1001B0008D056091340185E391E00E948D05E8CFC3
:1001C0000895209196013091970128173907B9F4C5
:1001D0009091540180915501981789F0E091540154
:1001E000F0E0EA5AFE4F80812091540130E02F5F09
:1001F0003F4F2F7333272093540190E008958FEFE2
:100200009FEF08951F93CF93DF93DC015C968D9150
:100210009C915D97009749F481E090E013969C9340
:100220008E93129780E090E03BC05196ED91FC9147
:10023000529750962C915097322F30951FB75E965B
:100240004C915E9741FB772770F941FD6095F894DA
:100250004081772311F0422B01C043234083EC01FE
:100260002197F1F748E0508160FF02C0522B01C096
:1002700053235083EC012197F1F76695415099F78C
:100280008081772311F0832301C0822B80831FBFDD
:100290005C968D919C915D970197F1F781E090E0DC
:1002A000DF91CF911F910895209196013091970190
:1002B0002817390781F490915401809155019817BE
:1002C00051F0E0915401F0E0EA5AFE4F8081992705
:1002D00087FD909508958FEF9FEF089520919601E7
:1002E000309197012817390771F4809155012091B9
:1002F000540190E0805C9F4F821B910960E470E0A4
:100300000E94D706089580E090E00895209196011C
:10031000309197012817390739F48FB7F894109264
:100320005501109254018FBF0895E0919601F0910C
:100330009701E817F90769F4A389B4899C91858925
:10034000809589238C93109297011092960181E0F9
:10035000089580E00895CF93DF93EC018A8D9B8D03
:10036000892BF1F080919601909197018C179D0750
:10037000B9F0009711F00E9495018E8D8E7F8E8FBF
:100380001092550110925401D0939701C093960199
:10039000EB89FC8980819D89892B808381E001C064
:1003A00080E0DF91CF9108951F920F920FB60F92C8
:1003B00011242F933F934F935F936F937F938F936A
:1003C0009F93AF93BF93EF93FF93E0919601F091CA
:1003D0009701309709F451C0868DA685B78595851C
:1003E00081FF04C08C91892329F447C08C91892313
:1003F00009F043C0A389B4899C918589809589239C
:100400008C93868997890197F1F7208D318DA68588
:10041000B785758558E040E0C9010197F1F7842F51
:1004200090E095958795482F6C91672309F0406877
:10043000515091F7868D81FD40958091550190E056
:1004400001968F73992720915401281749F0A091A4
:100450005501B0E0AA5ABE4F4C938093550103C09A
:10046000868D8160868F828D938D0197F1F7A389A8
:10047000B4898C919589892B8C93FF91EF91BF91D1
:10048000AF919F918F917F916F915F914F913F912C
:100490002F910F900FBE0F901F90189527E031E01D
:1004A000FC01318320830C9495011F93CF93DF933C
:1004B000EC01162F6E8D6695617081E06827812FA3
:1004C0000E94A10661E0812F0E946806812F90E0C2
:1004D000FC01E458FF4FE491E88BFC01E057FF4F2B
:1004E000E491F0E0EE0FFF1FE255FF4F85919491EC
:1004F0009A8B898BDF91CF911F9108951F93CF9392
:10050000DF93EC01162F60E0812F0E9468068E8D2C
:1005100081FD04C061E0812F0E94A1061C87812F0C
:1005200090E0FC01E458FF4FE491ED87FC01E057B7
:10053000FF4FE491F0E0EE0FFF1FEC55FF4F859168
:1005400094919F878E87DF91CF911F910895FF929D
:100550000F931F93CF93DF93EC01F62E522F1B8244
:100560001A8208EE13E020E030E00C831D832E8316
:100570003F8387E091E0998388831F8A1E8A198EC2
:10058000188E1B8E1A8E1D8E1C8E8E8D8E7F50FBAC
:1005900081F98E8F642FCE010E9455026F2DCE01FE
:1005A000DF91CF911F910F91FF900C947E02CF931A
:1005B000DF93EC019A01AB011B8E1A8E198E188EF7
:1005C0001F8A1E8A60E079E08DE390E00E940D07AB
:1005D000C9012430310520F0B9016350710902C00E
:1005E00061E070E07D8F6C8FEC85E63108F068C0CB
:1005F000B901769567956431710518F063517109F9
:1006000002C061E070E07F8B6E8B069718F0C90125
:10061000059702C081E090E0998F888FC901880F0B
:10062000991F820F931F96958795969587958D3084
:10063000910510F00C9702C081E090E09B8F8A8FAB
:1006400020916800E83050F091E0EE3008F490E03E
:1006500081E001C0880F9A95EAF701C084E0822BFF
:10066000809368002C85283038F02E3040F02631F9
:1006700048F48CE690E008C08DE690E005C08BE67B
:1006800090E002C080E090E09C8B8B8B283030F4AF
:1006900081E001C0880F2A95EAF70DC0822F90E013
:1006A0002E3010F4089701C00E9791E001C0990F09
:1006B0008A95EAF7892F8D8B8C8D9D8D0197F1F7A7
:1006C000CE01DF91CF910C94AB01FC01818D228D85
:1006D00090E0805C9F4F821B91098F73992708954A
:1006E000FC01918D828D981731F0828DE80FF11DFC
:1006F000858D90E008958FEF9FEF0895FC01918D17
:10070000828D981761F0828DDF01A80FB11D5D9673
:100710008C91928D9F5F9F73928F90E008958FEFE1
:100720009FEF089582E095E0892B49F080E090E00A
:10073000892B29F00E94020581110C940000089574
:10074000FC01848DDF01A80FB11DA35ABF4F2C916E
:10075000848D90E001968F739927848FA689B7893D
:100760002C93A089B1898C9180648C93938D848D16
:10077000981306C00288F389E02D80818F7D8083E5
:100780000895CF93DF93EC01888D8823C9F0EA891F
:10079000FB89808185FD05C0A889B9898C9186FD7A
:1007A0000FC00FB607FCF5CF808185FFF2CFA88977
:1007B000B9898C9185FFEDCFCE010E94A003E7CFD0
:1007C000DF91CF910895CF92DF92FF920F931F9305
:1007D000CF93DF931F92CDB7DEB76C0181E0D601D6
:1007E00058968C9358975B969C915B975C968C91EE
:1007F0005C97981307C05096ED91FC9151978081BA
:1008000085FD2EC0F601038D10E00F5F1F4F0F73A3
:100810001127F02EF601848DF81211C00FB607FCD7
:10082000F9CFD6015096ED91FC915197808185FFCB
:10083000F1CFC60169830E94A0036981EBCF838D4C
:10084000E80FF11DE35AFF4F6083D6015B960C93CE
:100850005B975296ED91FC915397808180620CC01A
:10086000D6015696ED91FC91579760835096ED9185
:10087000FC91519780818064808381E090E00F90AB
:10088000DF91CF911F910F91FF90DF90CF9008954E
:10089000BF92CF92DF92EF92FF92CF93DF93EC0162
:1008A0006A017B01B22EE889F98982E080834115D3
:1008B00081EE580761057105A1F060E079E08DE3F4
:1008C00090E0A70196010E94EB06215031094109F1
:1008D00051095695479537952795211580E1380799
:1008E00098F0E889F989108260E874E88EE190E078
:1008F000A70196010E94EB062150310941095109D7
:100900005695479537952795EC85FD853083EE857F
:10091000FF852083188EEC89FD89B082EA89FB89E6
:10092000808180618083EA89FB89808188608083FF
:10093000EA89FB89808180688083EA89FB898081DC
:100940008F7D8083DF91CF91FF90EF90DF90CF90EC
:10095000BF9008951F920F920FB60F9211242F93FC
:100960008F939F93EF93FF93E091A801F091A901DA
:100970008081E091AE01F091AF0182FD12C09081C3
:100980008091B1018F5F8F732091B201821751F076
:10099000E091B101F0E0E856FE4F958F8093B101F0
:1009A00001C08081FF91EF919F918F912F910F90C6
:1009B0000FBE0F901F9018951F920F920FB60F92B7
:1009C00011242F933F934F935F936F937F938F9354
:1009D0009F93AF93BF93EF93FF9388E991E00E94B9
:1009E000A003FF91EF91BF91AF919F918F917F9164
:1009F0006F915F914F913F912F910F900FBE0F908C
:100A00001F90189588E991E00E94650321E0892BE9
:100A100009F420E0822F089510929B0110929A0110
:100A200088EE93E0A0E0B0E080939C0190939D015C
:100A3000A0939E01B0939F0187E191E0909399016B
:100A40008093980185EC90E09093A5018093A40198
:100A500084EC90E09093A7018093A60180EC90E055
:100A60009093A9018093A80181EC90E09093AB0151
:100A70008093AA0182EC90E09093AD018093AC0149
:100A800086EC90E09093AF018093AE011092B1019B
:100A90001092B2011092B3011092B4010895CF9256
:100AA000DF92EF92FF920F931F93CF93DF936C012E
:100AB0007A01EB01E60EF71E00E010E0CE15DF052F
:100AC00061F06991D601ED91FC910190F081E02DEA
:100AD000C6010995080F191FF1CFC801DF91CF9109
:100AE0001F910F91FF90EF90DF90CF9008956115C7
:100AF000710581F0DB010D900020E9F7AD01415057
:100B00005109461B570BDC01ED91FC910280F381EA
:100B1000E02D099480E090E00895DC01ED91FC91D6
:100B20000190F081E02D099463E271E00C94770567
:100B30000F931F93CF93DF93EC010E9477058C01F5
:100B4000CE010E949405800F911FDF91CF911F91DC
:100B50000F91089508950E9404060E94AA050E941C
:100B60008E00C2E9D3E00E94B6002097E1F30E9414
:100B70009203F9CF1F920F920FB60F9211242F9369
:100B80003F938F939F93AF93BF9380913602909141
:100B90003702A0913802B09139023091350223E03A
:100BA000230F2D3720F40196A11DB11D05C026E8A5
:100BB000230F0296A11DB11D2093350280933602AA
:100BC00090933702A0933802B093390280913A0291
:100BD00090913B02A0913C02B0913D020196A11D73
:100BE000B11D80933A0290933B02A0933C02B093D4
:100BF0003D02BF91AF919F918F913F912F910F90A7
:100C00000FBE0F901F901895789484B5826084BDB4
:100C100084B5816084BD85B5826085BD85B5816000
:100C200085BDEEE6F0E0808181608083E1E8F0E060
:100C30001082808182608083808181608083E0E88F
:100C4000F0E0808181608083E1EBF0E0808184606E
:100C50008083E0EBF0E0808181608083EAE7F0E070
:100C600080818460808380818260808380818160D4
:100C700080838081806880831092C10008958330D2
:100C800081F028F4813099F08230A1F00895873006
:100C9000A9F08830B9F08430D1F4809180008F7D44
:100CA00003C0809180008F7780938000089584B581
:100CB0008F7702C084B58F7D84BD08958091B00088
:100CC0008F7703C08091B0008F7D8093B00008952E
:100CD000CF93DF9390E0FC01E458FF4F2491FC0197
:100CE000E057FF4F8491882349F190E0880F991FC6
:100CF000FC01E854FF4FA591B49182559F4FFC0130
:100D0000C591D4919FB7611108C0F8948C9120953A
:100D100082238C93888182230AC0623051F4F89434
:100D20008C91322F309583238C938881822B8883FA
:100D300004C0F8948C91822B8C939FBFDF91CF914C
:100D400008950F931F93CF93DF931F92CDB7DEB714
:100D5000282F30E0F901E859FF4F8491F901E45858
:100D6000FF4F1491F901E057FF4F04910023C9F0A0
:100D7000882321F069830E943F066981E02FF0E01B
:100D8000EE0FFF1FE255FF4FA591B4919FB7F89466
:100D90008C91611103C01095812301C0812B8C932C
:100DA0009FBF0F90DF91CF911F910F91089597FBF7
:100DB000072E16F4009407D077FD09D00E942C0767
:100DC00007FC05D03EF4909581959F4F089570954E
:100DD00061957F4F0895A1E21A2EAA1BBB1BFD014E
:100DE0000DC0AA1FBB1FEE1FFF1FA217B307E4070A
:100DF000F50720F0A21BB30BE40BF50B661F771F62
:100E0000881F991F1A9469F7609570958095909541
:100E10009B01AC01BD01CF010895052E97FB1EF487
:100E200000940E94240757FD07D00E94EB0607FCA0
:100E300003D04EF40C94240750954095309521959D
:100E40003F4F4F4F5F4F08959095809570956195F6
:100E50007F4F8F4F9F4F0895AA1BBB1B51E107C0C7
:100E6000AA1FBB1FA617B70710F0A61BB70B881F3A
:100E7000991F5A95A9F780959095BC01CD010895C9
:100E8000EE0FFF1F0590F491E02D099410E0C6ECE1
:100E9000D0E004C0FE010E9442072296C83CD10760
:060EA000C9F7F894FFCF32
:100EA6004154000000000002014F056E01E10054AC
:100EB60001860100000000E3034F0565037E037011
:100EC60003C1030D0A006E616E00696E66006F76DF
:040ED60066002E0084
:00000001FF
